:020000040801F1
:10000000F8FF0120EB9C030859AF030891AF0308E8
:10001000A9AF030855BF030855BF0308000000003F
:10002000000000000000000000000000499D0308DF
:1000300057BF03080000000057BF030841B2030880
:1000400055BF030855BF030855BF030855BF030834
:1000500055BF030855BF030855BF030855BF030824
:1000600055BF030855BF030855BF030855BF030814
:1000700055BF030855BF030855BF030855BF030804
:1000800055BF030855BF030855BF030855BF0308F4
:1000900055BF030855BF030855BF030855BF0308E4
:1000A00055BF030855BF030855BF030855BF0308D4
:1000B00055BF030855BF030855BF030855BF0308C4
:1000C00055BF030855BF030855BF030855BF0308B4
:1000D00055BF030855BF030855BF030855BF0308A4
:1000E00055BF030855BF030855BF030855BF030894
:1000F00055BF030855BF030855BF030855BF030884
:1001000055BF030855BF030855BF030855BF030873
:1001100055BF030855BF030855BF030855BF030863
:1001200055BF030855BF030855BF030855BF030853
:1001300055BF030855BF030855BF030855BF030843
:1001400055BF030855BF030855BF030855BF030833
:1001500055BF030855BF030855BF030855BF030823
:1001600055BF030855BF030855BF030855BF030813
:1001700055BF030855BF030855BF030855BF030803
:1001800055BF03087FB500260446174D03222B6890
:1001900081210393009640232BF026FA134B032270
:1001A00000930121402320462BF01EFA4023032216
:1001B0008321204600962BF017FA03220C4B1146A0
:1001C0000093204640232BF00FFA039A2B689A42A3
:1001D00001D02AF0B5FE7F2201212046054B04B054
:1001E000BDE870402BF08DBDF8FF01209D02010895
:1001F00051020108F901010837B512480468019459
:100200000C78812C044618D14878062815D14888E6
:10021000B0F5085F11D188882221012817BF0A484C
:100220000A4D106001200ABF156019801980019ADB
:1002300023689A4203D02AF083FE0020F7E703B038
:1002400030BD00BFF8FF0120AF220408D12204080E
:1002500013B50F4C0F4A23680321019340232BF061
:10026000EAF940280ED10C4B1878019A2368C0B2E5
:100270009A4201D02AF064FE064902B0BDE810405F
:1002800000F0FCBF019A23689A42F3D102B010BD7E
:10029000F8FF0120000000203C8C002013B5154C15
:1002A000154A23680121019340232BF0C4F940280B
:1002B000024619D1114B1B7801995BB92368994209
:1002C00001D02AF03DFE6E200B4902B0BDE810407F
:1002D00001F098B923689942F3D10146064802B06B
:1002E000BDE8104001F05EBA019A23689A42E8D155
:1002F00002B010BDF8FF0120400000203C8C00201F
:1003000010B50F4C86B023680E4A059380230293E4
:100310000D4B0E49019306230D4800930D4B2BF016
:1003200037F90D4B059A186023689A4201D02AF0DC
:1003300007FE0A4906B0BDE810402BF0A6BB00BF7F
:10034000F8FF0120182204083D8C00202522040813
:1003500000FC0708C0810020C08C00208501010836
:1003600073B5144E144D3368286801932BF038F997
:1003700001F0F0F9114C206038B14023226881214E
:1003800028682BF051F94028F7D100F047FA206097
:1003900038B140232268832128682BF045F9402892
:1003A000F7D1019A33689A4201D02AF0C9FD02B010
:1003B00070BD00BFF8FF0120C08C0020388C0020E9
:1003C00007B5084B1A680192074A11781070019A14
:1003D0001B6808469A4201D02AF0B2FD03B05DF8CE
:1003E00004FB00BFF8FF01203C8C0020F7B50B4C4C
:1003F00005462268019204DF0646094F04DF801B90
:10040000A84205D3019A23689A4205D02AF098FDA4
:1004100038682BF0E5F8F1E703B0F0BDF8FF0120F4
:10042000C08C002073B5294E2028326805460C4642
:10043000019245D10246264920462CF031F9002888
:1004400040D02A46234920462CF02AF9002839D0EA
:100450002A46214920462CF023F998B32A461F4901
:1004600020462CF01DF968B32A461D4920462CF081
:1004700017F938B32A461B4920462CF011F908B366
:100480002A46194920462CF00BF9D8B12A461749BB
:1004900020462CF005F9A8B12A46154920462CF033
:1004A000FFF878B12022134920462CF0F9F8B0FA71
:1004B00080F04009019A33689A4205D02AF040FD45
:1004C0000020F7E70120F5E702B070BDF8FF01203A
:1004D00059A404087AA404089BA40408BCA4040832
:1004E000DDA404085B230408FEA404081FA5040877
:1004F00040A5040861A50408F0B5424C91B02368FA
:1005000007A80F932AF0F6FD07A90546FFF78AFF13
:10051000034668B93C4A059004923C4ACDE9020280
:100520003B4A01923B4A00921A4619463A484EE02D
:10053000EFF31483DB075CD4202D06D12A4637491C
:1005400007A82CF0ADF8002853D00023344A0593B7
:100550000492344A0193CDE90232334A194600929B
:1005600032481A4629F0C2FC0A242AF0A9FD304E6E
:10057000304F2AF01FFF022100202AF0BBFF02218A
:1005800001202AF0B7FF4FF00065A959284604352D
:100590002AF098FFBD42F8D12AF01EFF07A82AF0E2
:1005A000A9FD2028024616D11C4907A82CF078F88E
:1005B000034680B9204A05900492204A0146CDE9BD
:1005C00002021F4A01921F4A009202461E4829F069
:1005D0008DFC29F099FB013CCBD10B4B0594049386
:1005E0000A4BCDE90243194B0193194B0093234663
:1005F0009AE70F9A23689A4201D02AF0A1FC11B021
:10060000F0BD00BFF8FF01209CA30408B1A30408BB
:10061000C4A30408CEA30408D4E907087CA30408F3
:10062000E1A30408EEA30408FCA3040874EA070885
:100630007C23040000800008A3C6040810A404085A
:1006400021A404082FA40408FCE907083FA4040817
:1006500047A404081D4B2DE9F74F054688460024A2
:1006600099464FF0280A17461A68DFF868B00192D9
:100670000AFB04B62022314628462CF011F858B95E
:10068000336AC8F80030736A3B60019AD9F80030C9
:100690009A4218D02AF054FC01340B2CE8D10C4CAF
:1006A0000421224628462AF0E1FC2E2304F10A0206
:1006B000042105F11C00637223722AF0D7FCC8F8EC
:1006C00000400023E0E703B0BDE8F08FF8FF012011
:1006D000C48C0020A0A704082DE9F3410F4DDFF8DA
:1006E00040802A68071F019200F11C0657F8041F7A
:1006F000404616F071FF044640B906F011FE204650
:10070000019A2B689A4205D02AF01AFCB742EDD123
:100710000348F5E702B0BDE8F08100BFF8FF012013
:100720008000002037B5094C094D226801922AF05B
:10073000BDFB431E03332860F9D8019A23689A420F
:1007400001D02AF0FDFB03B030BD00BFF8FF01204F
:10075000D88C002073B541F688510025174C184AF3
:100760002368019313685D5403F5EC5145790B60E0
:10077000817901EB052141F68455595141F68951A2
:1007800005795D54C11D00F13F0551F8046BA94284
:1007900043F8046BF9D109781970136803F5EC5329
:1007A0001A6839321A600268064B1A60019A236887
:1007B0009A4201D02AF0C4FB02B070BDF8FF0120BC
:1007C000E48D0020D88C002073B5104B104C1A68B3
:1007D000246801920F4A1568691C01F07F018C4260
:1007E0000BD00D4C04EB851400F1400550F8046B60
:1007F000A84244F8046BF9D11160019A1B689A422F
:1008000001D02AF09DFB02B070BD00BFF8FF0120AF
:10081000ECAD0020E88D0020EC8D002007B50D4BDD
:100820000D481A680D490192096802688A421FBF83
:10083000511C01F07F01016009480CBF002000EB52
:100840008210019A1B689A4201D02AF079FB03B00A
:100850005DF804FBF8FF0120ECAD0020E88D0020DE
:10086000EC8D00202DE9F04114460746254E92B04C
:1008700033680D463A2200210DF10A0011932CF045
:1008800019F8392C8DF80870274628BF39271E4BD8
:100890003A461B68294601930DF10B00230A8DF897
:1008A00009308DF80A402BF02DFF01A8E41B3D44D0
:1008B000FFF78AFF00275FFA87F801372CB9119AF2
:1008C00033689A421BD02AF03BFB3B2200210DF1FA
:1008D00009002BF0EFFF3B2C8DF80880A04628BFC5
:1008E0004FF03B08294642460DF109002BF00AFF64
:1008F00001A8FFF769FFA4EB08044544DBE712B049
:10090000BDE8F081F8FF0120D88C002007B5084B26
:100910000A461968019101991B68994201D02AF091
:100920000FFB0146812003B05DF804EBFFF79ABF8F
:10093000F8FF012070B50F4C92B023683C220646A8
:100940000D4602A8002111932BF0B4FFBF238DF8B0
:100950000830012301A88DF80A3001968DF80B505C
:10096000FFF732FF119A23689A4201D02AF0E8FA81
:1009700012B070BDF8FF012030B5124C93B0226860
:100980001192114A156849B103212846FFF7D2FF99
:10099000119A23689A4213D02AF0D2FA0B4B1A68A4
:1009A0000AB10B4A1A603C22002102A82BF082FFF8
:1009B000882301A801958DF80830FFF705FFE7E7C8
:1009C00013B030BDF8FF0120D88C0020DC8C002053
:1009D000801A060070B5214E0468326896B005464C
:1009E00015924CB90B212046FFF7A4FF159A3368E6
:1009F0009A4231D02AF0A4FA3C22002106A82BF01A
:100A000059FF86238DF8183011238DF81A302B46A4
:100A10006A4653F8070F05945968631C03C202D154
:100A2000FFF780FE04460E4B0294039301236C46AD
:100A30008DF8103004AD0DF11B03224603CAAA4203
:100A400018605960144603F10803F6D11068186065
:100A500005A8FFF7B9FEC9E716B070BDF8FF012081
:100A60000201060207B5084B0A461968019101996F
:100A70001B68994201D02AF063FA0146832003B033
:100A80005DF804EBFFF7EEBEF8FF012013B50A4C4A
:100A90008DF80100236802210193030A68468DF84E
:100AA0000030FFF7DFFF019A23689A4201D02AF055
:100AB00047FA02B010BD00BFF8FF012007B5104A89
:100AC00001791368019343791B0203EB0143817998
:100AD000CB42019913680AD0994201D02AF030FA2A
:100AE0004FF4CE4003B05DF804EBFFF7CFBF99425F
:100AF000F4D10821034803B05DF804EBFFF7B2BF5F
:100B0000F8FF012058A904082DE9F04F894B8A4DC0
:100B10001A68ADF2446DCDF83C262A780446079356
:100B2000D2B904F1270629F019F920228349304669
:100B30002BF0B6FD0346D0B9814ACDE904000292FC
:100B4000804A03900192804A014600927F48804A81
:100B500029F0CCF914232B702B78142B12D146F6E4
:100B60008510FFF793FF7B4B7B4A1A603FE009AA91
:100B700008A93046FFF76EFDDDE90812774807F057
:100B80006FFBE7E7152B40F0CD8040F20D520021BE
:100B90004BA82BF08FFE05238DF82C314023002627
:100BA0008DF86E3104F127080AAF2AF07FF940F082
:100BB000004047F826000136082EF6D10DF26F16D8
:100BC000BC4632460DF1480E634603CB73451060B8
:100BD00051609C4602F10802F6D1614801F0B0FA7A
:100BE00070B906F09DFB4FF4D540FFF74FFF079B10
:100BF000DDF83C261B689A4200F097802AF0A0F9A5
:100C00003846FFF769FD82460028ECD043460DF1D7
:100C1000EC0C08F1200E624618685968083303C2CC
:100C200073459446F7D133460DF5867C0DF28F1E41
:100C3000624618685968083303C273459446F7D171
:100C40000AF1280B0DF28F130DF1EC0900934A46BF
:100C500040232021584616F091F8DAF86C300DF256
:100C60002D125868594611F00DFD9DF86E014FF494
:100C70008E723C4930442BF045FD00233B704346C7
:100C80000DF1290204F1470153F8040B8B4242F89D
:100C9000040BF9D107340DF1490354F8042B4445F2
:100CA00043F8042BF9D133460DF169020DF2AF116F
:100CB00053F8040B8B4242F8040BF9D141220DF298
:100CC0002D110DF1A9002BF01DFD0021C223CDE94E
:100CD00002110093CDF804903B46234A234811F0BB
:100CE00075FC044600287FF47EAF9DF86E114846DF
:100CF00001F58E71314412F0A1F99DF86E311C4A54
:100D0000C1B2128803F58E730B44F2529DF86E3116
:100D1000104A03F2611319444BA82C701460FFF7BA
:100D2000A1FE64E70B4B00221FE70DF2446DBDE806
:100D3000F08F00BFF8FF0120E18D002037A70408E5
:100D400058A704086DA7040882A7040874EA0708D6
:100D5000D6FC0408DC8C0020801A060095A7040845
:100D60008000002085A50408A1A6040864010608E7
:100D700082A5040873B5214D04462B682E460193C5
:100D800001F058FD60B9019A2B689A4201D02AF00F
:100D9000D7F846F6851002B0BDE87040FFF776BE82
:100DA00062792379120202EB0342A3791A44402AA2
:100DB00006D0019A2B689A42E9D14FF4CE40EAE777
:100DC000E51D29460E482BF06BFC60B129460C4B03
:100DD00004F1470251F8040B914243F8040BF9D196
:100DE0000022084B1A70019A33689A42CFD12046EC
:100DF00002B0BDE87040FFF787BE00BFF8FF0120DA
:100E0000E08C0020E18D00202DE9F04F7F4DC1B036
:100E10002B6804463F9301F00DFD059520B946F679
:100E20008510FFF733FE97E0637922791B0203EB0D
:100E30000243A27913443F2B02DC4FF4CE40F0E78B
:100E400094F84730402B02D04FF4D540E9E704F145
:100E5000480709AE3B46B44604F168056246186887
:100E60005968083303C2AB429446F7D1002356F8C1
:100E70002320002AE8DA0133082BF8D1644801F076
:100E80005FF910B906F04CFADEE73046FFF724FCB4
:100E900083460028D8D004F127090DF1AC0A4B464F
:100EA000D64604F14708724618685968083303C2E9
:100EB00043459646F7D13B4633AF03F1200E3A4601
:100EC00018685968083303C273451746F7D11BAF3A
:100ED0000BF1280B4023524620215846009715F06D
:100EE0004DFF2022394628462BF0DAFB04900028DB
:100EF000AAD1A378072B92D0032BA5D1E51DC1223F
:100F0000294644482BF0CCFBDFF8208138B1C122C0
:100F1000294640482BF0F6FB049B88F8003098F8EF
:100F2000003073B928F01AFF08AA07A94846FFF74E
:100F300091FBDDE90712384807F092F90A2388F897
:100F4000003098F800300A2B0DD146F68510FFF7D7
:100F50009DFD324B324A1A60059B3F9A1B689A42AC
:100F600050D029F0EDFF0B2BF6D101F067FD0123E6
:100F70008DF8AC30030E8DF8AD30030C8DF8AE302B
:100F8000030A8DF8AF30B4464B468DF8B0004734B5
:100F9000624618685968083303C2A3429446F7D1E1
:100FA00001238DF84430DDF8AD30CDF845300DF13A
:100FB000490355F8042B4D4543F8042BF9D1002182
:100FC0004523CDE902110093019733465A4615484F
:100FD00011F0FCFA044600287FF436AF0DF1B101A0
:100FE000384612F02BF8104AC1B212884B1D2AF86D
:100FF00003200A4B0731504688F800401C60FFF779
:1010000031FDA9E741B0BDE8F08F00BFF8FF012036
:1010100080000020208D00202AA70408DC8C0020FE
:10102000801A06006401060882A50408E18D0020EC
:1010300037B5234A05791368019343791B0203EB03
:10104000054385792B4407338B4233D8037863B14A
:1010500001991368994201D029F072FF4FF4DC40E6
:1010600003B0BDE83040FFF711BD43780199022B72
:101070000BD0032B11D0012B136816D19942EBD161
:1010800003B0BDE83040FFF775BE13689942E3D165
:1010900003B0BDE83040FFF7B7BE13689942DBD11B
:1010A00003B0BDE83040FFF709BD9942D4D14FF4F9
:1010B000DA40D5E7019913689942CDD103B030BD2C
:1010C000F8FF01202DE9F04F494EADF5EC5D85B0FC
:1010D00033680DF5EC52474C0C321360C4F800D065
:1010E000FFF738FB0120FFF76BF9434F41F68453BC
:1010F0002068C15841F6895300F5EC52126810F887
:101100000390121A8A420CDBB9F1810F3CD032D81D
:10111000B9F1000F3AD0394B01211868FFF70AFCEA
:1011200034E041F688529A46934610F80280344DD6
:10113000236813F80A2013F80B304345D6D19145A4
:10114000D4D1013D14D12D4F05213868FFF7F2FBB2
:1011500028463D602560FFF733F906F0E1F80DF50C
:10116000EC530C331A6833689A423CD029F0E8FEFD
:10117000FFF7F6F8DCE7B9F1830F1AD0B9F1880F61
:10118000C9D1FFF7F9FB01E0FFF7C0FB41F6885337
:10119000FF212268D15241F6895221683B68885C60
:1011A00053B90028A2D1174B20601870134B186058
:1011B000D1E7FFF73DFFE9E7002897D1013B3B600E
:1011C000FFF7CEF828F0CAFD0F4B1B78002BE2D0BA
:1011D0000C4A13780A2B01D0142BDCD10133137085
:1011E0000A4B3B60D7E70DF5EC5D05B0BDE8F08F2D
:1011F000F8FF0120E48D0020DC8C0020D88C00203A
:10120000811A0600E18D00205C57012000093D0095
:1012100013B5194B1968019190F90410002925DACA
:101220000468611E03310CD9019A1B689A4201D0EF
:1012300029F086FE0B21204602B0BDE81040FFF7E2
:1012400079BB4179827902EB012241F67E518A42D3
:10125000019A1B6803DD9A42EAD10321EBE79A4227
:10126000E6D102B0BDE81040FFF72CBF019A1B6821
:101270009A42DDD102B010BDF8FF0120F7B5424B14
:101280000C4609791A688629054601921E4619D12D
:101290002046FFF79FFB7DB13C4B1B6863B13C4A86
:1012A00021681268914207D141F684520021995079
:1012B00041F68852FF219952019A33689A420FD120
:1012C00003B0F0BD002854D0304D27682A681AB109
:1012D0002F480068B8420CD0019A33689A4201D076
:1012E00029F02EFE0621384603B0BDE8F040FFF796
:1012F00021BB41F6885711F0800FD75D0BD0FF2F2F
:1013000009D1019A1B689A42EAD1204603B0BDE890
:10131000F040FFF71FBAB94204D00421FFF70AFBDF
:101320002B68C1E741F6845002F5EC531B68105856
:101330009F1A8742C0DA41F67E5703F13B00801ABC
:10134000B842B9DC41F6885001311154621D3D3478
:1013500052F8041BA24243F8041BF9D111881980EA
:1013600092789A702B6803F5EC531A683B321A6036
:10137000A2E7019A1B689A42B2D1204603B0BDE8A9
:10138000F040FFF745BF00BFF8FF0120E48D0020CB
:10139000D88C0020F7B5154C154F23683A68019397
:1013A000144B9601D3F800C0134DBCF1000F03D1CC
:1013B0003F21A9550121196019680D4401314029C7
:1013C00001BF00211960C021531C05BFB3FBF1F21E
:1013D00001FB123319603B60019A2368A8559A42B9
:1013E00001D029F0ADFD03B0F0BD00BFF8FF012032
:1013F000F8DD0020F4DD0020F4AD002073B50D46CB
:10140000094C8E1820680190B54206D1019A2368D4
:1014100001209A4206D029F093FD15F8010BFFF741
:10142000B9FFF1E702B070BDF8FF012037B50D4DEF
:101430002C6801940C4C23780BB9184608E08342C1
:101440000CD163788B4209D16388934206D16068DE
:10145000019A2B689A4203D029F072FD0C34EAE716
:1014600003B030BDF8FF012060A9040873B5114D29
:101470002C680194104C26782EB9019A2B689A4258
:101480000DD102B070BD864211D166788E420ED168
:10149000668896420BD101992A68914201D029F0C1
:1014A0004FFD1846A26802B0BDE8704010470C34EA
:1014B000E1E700BFF8FF012060A904082DE9F04131
:1014C000304D88B02B680C4617460A466F2180467F
:1014D0000793FFF7ABFF064630B90020079A2B6849
:1014E0009A424CD029F02CFD01463A4601A828F03A
:1014F000CDFA0028F1D0B8F16E0FEED12320FFF71E
:1015000049FF2320FFF746FF200AFFF743FFE0B221
:10151000FFF740FF9DF80700FFF73CFF9DF806002E
:10152000FFF738FF9DF80500FFF734FF9DF8040032
:10153000FFF730FF144B002402934FF0FF33314686
:10154000124E3A4602A8CDE90343CDE9054428F0FE
:101550005DFA3268002AC1D00D490E4F0B6807EBC7
:1015600083173F2A08D93460C0240133B3FBF4F257
:1015700004FB12330B60B1E7BC540132F1E708B051
:10158000BDE8F081F8FF0120FD130108F4DD002023
:10159000F8DD0020F4AD00202DE9F0439846174611
:1015A000164C87B02368DDF838904FF4405205465A
:1015B0000E461348002105932BF07CF94A4641461C
:1015C00001A827F051F90E4A394601A827F0B8FDC5
:1015D00058B10B4B324669212846FFF747FF059A61
:1015E00023689A4206D029F0ABFC0499032001F04D
:1015F000F5FCF4E707B0BDE8F08300BFF8FF012079
:10160000703100202DE9FF47DFF84491402AD9F8D6
:10161000003080460C4603934F466CD1444B1A78F9
:101620001E46002A60D10B783F2B64D14B78232BC8
:1016300061D18B78232B5ED1CB780A790D7A02EBBE
:1016400003223C4B92B21A804B7905EB03658B79F0
:1016500005EB0345CB79692105EB0325364B1D606E
:10166000FFF7E4FE354B186068B9039AD9F80030EB
:101670009A4201D029F064FC0120314904B0BDE850
:10168000F04701F0ABBCB5F5405F07D9039AD9F834
:1016900000309A42EED12B490320EFE701232A4A7A
:1016A000337004F109033D3453F8041BA34242F89C
:1016B000041BF9D1198811809B7893703722234B32
:1016C0001A601D4B214C1B6822689A4213D3194A99
:1016D00040461188194A009312681B4BFFF75CFFC4
:1016E00000232360337006E0012AEAD10A783F2AFA
:1016F00008D000221A70039A3B689A42BAD104B00B
:10170000BDE8F087DFF844A00F48DAF80050013157
:10171000C5F54059B9F13F0F28BF4FF03F092844A4
:101720004A464D442AF0EEFFCAF80050C9E700BF10
:1017300008DE0020D881002004DE0020F0AD00206B
:1017400020AD040830AD04087001002000DE002048
:10175000F8FF012037B50F4A0F4C13680F4901936A
:10176000096823688B421BBFC0250D48002000EB91
:1017700083101EBF0133B3FBF5F105FB1133019953
:1017800018BF23601368994201D029F0D9FB03B038
:1017900030BD00BFF8FF0120FCDD0020F8DD002097
:1017A000F4AD002070B52B4D86B02B684029059311
:1017B00039D103783F2B36D14378232B33D183782B
:1017C000232B30D14379027A02EB0362837902EB57
:1017D0000342C37902EB0322402A24D8C2F140031A
:1017E000082B20D9C378047900F1090104EB032404
:1017F000A4B201A827F038F8142C174E19D005D838
:10180000CCB1132C19D0154901201AE01B2C03D0A0
:101810002A2CF8D1124900E01249134A01A827F0F6
:101820008FFC60B13480059A2B689A420FD029F062
:1018300087FB0E49F1E70E49EFE70E49EDE703207C
:10184000049901F0CBFB4FF6FF733380EBE706B052
:1018500070BD00BFF8FF0120DA81002020AD040830
:101860004DCF07087BCE0708F00000203CD50708C5
:1018700085D70708B6CF070807B50A4B1A68019243
:10188000019A1B689A4201D029F05AFB4FF47A73EF
:101890005843B0FBF1F1044803B05DF804EB28F0C5
:1018A00033BC00BFF8FF01204AAD040873B50C4CEF
:1018B00006462368012001930D46FEF797FD019A25
:1018C00023689A4201D029F03BFB4FF47A707043B1
:1018D000B0FBF5F1034802B0BDE8704028F014BC3D
:1018E000F8FF012040AD040800B50B4B89B01B6820
:1018F0000A4A079300230492094A0593CDE902326C
:10190000084A19460192084A084800921A4628F0E7
:10191000EDFA28F0F9F900BFF8FF0120A3C604088A
:1019200068AD0408C4A3040876AD0408D4E9070828
:1019300007B5084B10F0F00F1A68019201D0FFF7BD
:10194000D3FF019A1B689A4201D029F0F9FA03B03B
:101950005DF804FBF8FF012013B50A4C0C21236845
:101960000948019311F0E8FB019A23689A4201D0DB
:1019700029F0E6FA0C21054A034802B0BDE8104000
:1019800029F074BBF8FF012014DE002020DE0020C7
:1019900073B5002506460D4C402123680C48019381
:1019A0000C4B1D7011F026FC0B4B33210B481D70A6
:1019B00011F020FC0EB10A4B1D70019A23689A4267
:1019C00001D029F0BDFA02B070BD00BFF8FF0120C0
:1019D000706100200BDE002009DE0020B0610020D5
:1019E0000ADE002007B5084B1A680192019A1B68AD
:1019F0009A4201D029F0A4FA4FF4CE61034803B013
:101A00005DF804EB11F0F6BBF8FF0120E461002063
:101A10002DE9F043AB4BC3B01A688146419298461A
:101A2000002800F0AD80A84C94F8F23123B10023D7
:101A3000A64A1370A64A137094F8FC3113B1002221
:101A4000A44B1A70092394F87820636794F8003146
:101A5000002A40F0D280002B40F0D2809E4D84229C
:101A60002B799E499E4884F878302AF04BFE95F8F1
:101A70008C30F1229B499C4884F800312BF0A2FF66
:101A800095F8E03584229949994884F854362AF02B
:101A900039FE94F8F23143B98F4B93F87E2184F8E4
:101AA000F22193F87F3184F8F33194F8FC31002B64
:101AB00040F0ED80884B0A2293F888318D498E489A
:101AC00084F8FC312BF07EFF94F807324BB9824B3F
:101AD000112293F893318949894884F807322BF011
:101AE00071FF94F81932002B40F0D9807A4B2122F3
:101AF00093F8A5318349844884F819322BF062FFAA
:101B000094F83B3243B9744B93F8C72184F83B22D5
:101B100093F8C83184F83C3294F83D32002B40F001
:101B2000C6806D4B40F2044293F8C931774978483A
:101B300084F83D322AF0E6FD94F8443643B9664B0A
:101B400093F8D025D3F8D43584F84426C4F8483621
:101B500094F84C3643B9604B93F8D82584F84C265A
:101B600093F8D93584F84D3694F84E3643B95A4B2C
:101B700093F8DA25D3F8DC3584F84E26C4F85036CD
:101B800001AC4FF48072634920462AF0BBFD02206D
:101B900001DF02DF5F4B604903F17842A2F50042AA
:101BA000A25843F8042B8B42F6D15C4A4A4C1A6087
:101BB0005B4B5C4A19681160596851609A685A4BCE
:101BC0001A60B9F1000F09D05849594803F27463FB
:101BD00022188A5844F8042B9C42F9D1FFF702FFDF
:101BE0000022544B44F8042B9C42FBD9419AD8F86C
:101BF00000309A4263D029F0A3F9002B3FF449AF9B
:101C00000127384684F85476FEF7DAFB05462E4A5B
:101C1000494B02F20110494917F048F92846FEF7EE
:101C2000CFFB474B474D484AA3F2E460402115F0F3
:101C3000C5FB2946424815F0CFFC4FF0200CC4F8F4
:101C40006056424DD4F8E43605F18406C4F858369F
:101C50000FCE0FC596E80F0005F1180685E80F00B6
:101C600084F8887605F194070FCF0FC6C4F864C6D0
:101C7000C4F88CC697E80F0086E80F0005F16C00E9
:101C8000702111F0B7FA0020FFF782FE01E794F807
:101C9000FD31002B7FF418AF84F8FC3114E794F881
:101CA0001A32002B7FF42CAF84F8193228E7D4F8CD
:101CB0004032002B7FF440AF84F83D323CE743B024
:101CC000BDE8F083F8FF0120706100200BDE0020EA
:101CD00009DE00200ADE00201081000818810008BB
:101CE000EC6100209D81000871620020F4860008EC
:101CF000C8670020998200086D630020A482000854
:101D000078630020B68200088A630020DC82000825
:101D1000B0630020008000080081000873746F72B7
:101D200014DE0020048100080C810008E46100201A
:101D3000F07EFFF7FFBF000879180108D6120508EA
:101D4000546800204632558010700508D86700207E
:101D500073B5154903460A680220019202DF00208C
:101D6000124A106015680DB1FFF7BEFD032001DFB8
:101D70000F4A136012689A42F6D101200D4B0E4CA7
:101D8000D3F84826266883F844063244C3F8482628
:101D9000019A0B6825609A4201D029F0D1F802B06F
:101DA000BDE87040FFF734BEF8FF01200081000855
:101DB00000C000087061002010DE002013B5094C3F
:101DC0002368019300DF0120FFF722FE03DF019A61
:101DD00023689A4201D029F0B3F802B0BDE8104060
:101DE000FFF7A6BDF8FF0120F7B5434D2B6801931F
:101DF000FFF7F8FD0422414941482AF051FC002830
:101E000071D1404E3468092C6ED83F4B3F4A07CA07
:101E100083E807003E4A0C21184629F027F97CB3D5
:101E2000022C2FD9052C30D9072C31D9082C25D1DB
:101E30004FF4BC6300DF022002DF00229A5104331A
:101E4000B3F5CE6FFAD303DFFFF772FD052C15D87B
:101E500096F8803123B1D6F884311F2B28BF1F2379
:101E600000DF032001DF022002DF4FF0FF3202FA21
:101E700003F3284A136003DFFFF75AFD264B0BE0FC
:101E80002346D7E74FF4E673D4E74FF4BA63D1E7BC
:101E90004FF4BB63CEE7043319680029FBD0002060
:101EA00003F17843A3F550431C4ADB00136011F0A3
:101EB000010F03F1010712D000B11360092C0CD0FF
:101EC00096F88C301648F12280F80031154900F25E
:101ED00001102BF077FDFFF771FF012004E04908A6
:101EE00001203B46E3E70020019A2B689A4201D08B
:101EF00029F026F803B0F0BDF8FF01205CAD04081E
:101F0000008100081081000814DE00200481000810
:101F100020DE002000C0000800D0000810DE0020F5
:101F2000706100209D81000813B50D4B0D4C1A689F
:101F300001460192012284F81922019A1B6858B1C6
:101F40009A4201D028F0FCFF212204F21A2002B0AC
:101F5000BDE810402BF036BD9A42F3D102B010BD5F
:101F6000F8FF01207061002073B5114C064623680C
:101F700025460193B0B10F492AF05AFD90B90123CB
:101F80000D48019A80F8073223689A4201D028F060
:101F9000D7FF1122314600F5027002B0BDE8704053
:101FA0002BF010BD019A2B689A42F0D102B070BD9F
:101FB000F8FF012060AD04087061002007B50B4BED
:101FC0000B491A68019200220A700A490A7001211D
:101FD000094A82F8F21182F8F301019A1B689A42C9
:101FE00001D028F0ADFF03B05DF804FBF8FF01203D
:101FF0000BDE002009DE00207061002007B50A4BCF
:102000001A680192094A92F87E0108B192F87F019C
:10201000019A1B6800F001009A4201D028F090FF5D
:1020200003B05DF804FB00BFF8FF01201081000839
:10203000F7B5134C0E462268014601920122114D5C
:1020400085F83D222F4605F5117069B1B6F5806F10
:102050000AD132462AF056FBC5F84062019A23683D
:102060009A420AD028F06CFF4FF4806200212AF0D7
:1020700021FC0023C7F84032F0E703B0F0BD00BFF9
:10208000F8FF0120706100202DE9F341234D244F1A
:1020900029783B6881420646019303D1214B1B7886
:1020A000002B36D1204C94F88C3033B90020019AA3
:1020B0003B689A422FD028F043FF46B994F8C731C5
:1020C00053B91A4816F0E8FC50B9FFF70DFC05F0BB
:1020D00039F80028F2D1E9E794F8C831002BF0D0A4
:1020E0000120FEF76DF98046114C1249124BA4F104
:1020F0004002002E18BF21460C4816F0D7FE40467D
:10210000FEF75EF90122074B2E701A70A4F1400011
:10211000CDE70A48CBE702B0BDE8F0810CDE002035
:10212000F8FF01200BDE0020108100089D810008CF
:10213000B0610020D6120508AD18010870610020BA
:1021400030B50F4C85B0236803930E4B93F8E03500
:1021500093B10D4B0D4D009301900D4B0D4AA968A5
:10216000286815F06BF8003018BF0120039A236827
:102170009A4203D028F0E4FE1846F7E705B030BDD8
:10218000F8FF01201081000810700508F48600088F
:102190002C870008048700082DE9F0434B4EDFF838
:1021A0004C813368ADF5257DA39398F8043005463E
:1021B0000F461446002B73D0454938462AF038FCA8
:1021C000814600286CD104F0BDFF044638B90024D4
:1021D000A39A336820469A4274D028F0B1FECDE924
:1021E00000753C483C4B81683C4A006815F026F875
:1021F0000028ECD098F87E21002AE9D098F87F31A9
:10220000002B5BD0364A1478002C59D0354F97F804
:102210004030002BDCD00120FEF7D2F8804607F1D9
:1022200040002BF0F7FB0823024607F14001009322
:1022300040A82D4B16F060FF4FF400614846FFF7B1
:1022400035FB4FF480774FF480710DEB010016F0F1
:10225000CFFF38464FF4006107F58077FFF726FB84
:10226000B7F5106FEFD193A940A816F0FBFF03AFAD
:102270004046FEF7A5F8394693A823F045FA05F144
:1022800008019BAB00972022084623F0EBFF05F1E5
:10229000280100979BAB2022084623F0E3FF97E735
:1022A0002046FFF7F1FE002891D02B463A46402108
:1022B00015F084F8041C18BF012489E7144687E749
:1022C0001C4685E70DF5257DBDE8F083F8FF01206C
:1022D0003D70050818810008508100082881000819
:1022E00009DE00207061002053AD04081081000851
:1022F00007B5094B09481A680192094A92F8A521C5
:10230000002A019A1B6808BF00209A4201D028F0D9
:1023100017FE03B05DF804FBF8FF0120B682000849
:102320001081000807B5094B09481A680192094A4B
:1023300092F89321002A019A1B6808BF00209A4254
:1023400001D028F0FDFD03B05DF804FBF8FF01208B
:10235000A48200081081000807B50B4B1A6801928F
:102360000A4A92F8C90130B1D2F8CC210848B2F536
:10237000806F18BF0020019A1B689A4201D028F094
:10238000DFFD03B05DF804FBF8FF012010810008B9
:10239000E082000807B5014601200A4A136801934C
:1023A000094B83F8000101981268904201D028F08F
:1023B000C7FDF12203F2011003B05DF804EB2BF02E
:1023C00001BB00BFF8FF01207061002007B50D4B75
:1023D0000D481A68019290F8002162B90B4A0C4826
:1023E00092F88C20002A08BF0020019A1B689A42AC
:1023F00004D028F0A5FD00F20110F6E703B05DF867
:1024000004FB00BFF8FF012070610020108100086C
:102410009D810008F7B50E4A054613680D4F0193DC
:1024200000232C1A15F8016B3C4494F88D104EB91A
:102430000B43019913680CBF01200020994205D07D
:1024400028F07EFD891B0B43DBB2EAE703B0F0BD49
:10245000F8FF012010810008F7B50E4A0546136801
:102460000D4F019300232C1A15F8016B3C4494F88E
:1024700089114EB90B43019913680CBF012000204C
:10248000994205D028F05CFD891B0B43DBB2EAE7DB
:1024900003B0F0BDF8FF01201081000807B50A4B1A
:1024A0001A680192094A92F8880120B192F88901CC
:1024B000003018BF0120019A1B689A4201D028F011
:1024C0003FFD03B05DF804FBF8FF01201081000818
:1024D000012213B50B4C0146236801930A4B83F884
:1024E000FC2103F2FD100A222BF06CFA0022074BAC
:1024F0001A70019A23689A4201D028F021FD02B097
:1025000010BD00BFF8FF0120706100200ADE00202E
:10251000F7B5504E0446336801200193FFF738FAAF
:1025200001234D4D85F83B3285F83C3294F86C31EF
:10253000002B74D004F26D10FFF7CAFF94F87701F6
:1025400008B194F8780100F00100FFF737FD94F826
:10255000F270002F65D0012385F87830002385F8CC
:102560000031D4F8F4303D4FEB67D4F8F83004F57F
:10257000917CC5F88030D4F8FC30C5F88430202335
:10258000C5F8883004F581733A46186859680833ED
:1025900003C263451746F7D194F8223193B1012362
:1025A00085F8AC3020232E4FC5F8B03004F5A37C5D
:1025B00004F593733A4618685968083303C26345B3
:1025C0001746F7D100214022264B197022482AF0E5
:1025D00071F994F8793143B10123112204F5BD71E9
:1025E000214885F807322BF0EDF994F88B3153B37D
:1025F00004F5C670FFF798FC94F8AF314BB1012396
:102600001A4A85F844361268D4F8B0319B1AC5F8D6
:102610004836019A33689A4217D028F091FC144842
:102620008AE72378002BD4D00123F122E118114846
:1026300085F8003185F878702BF0C4F9094B4022F9
:102640001F703946C2E70A48D4E703B0BDE8F0403E
:10265000FFF7B4BBF8FF012070610020FC6100208F
:10266000246200200BDE00207863002010DE0020B2
:10267000D61205087162002013B5094C3322236875
:102680000146084801932BF09DF90122064B1A7070
:10269000019A23689A4201D028F052FC02B010BD82
:1026A000F8FF0120B061002009DE002007B5074BCC
:1026B0001A680192064A1078019A1B689A4201D062
:1026C00028F03EFC03B05DF804FB00BFF8FF0120DA
:1026D00009DE002030B51E4C0D462168ADB02B91AF
:1026E00012B91C4B1B7803B330BB2021284610F0D5
:1026F00023FD19482BF08EF917490246684614F05D
:10270000BBFA20222946684614F0FAFA0C22134933
:10271000684614F0F5FA05F12001684614F002FB52
:10272000A821684610F066FD01232B9A18462368FD
:102730009A420BD028F004FC2B4600F1200250F8FE
:10274000041B904243F8041BF9D1D2E72DB030BDF1
:10275000F8FF012009DE0020B061002014DE002017
:1027600007B50121064B1A680192064A1170019AB9
:102770001B689A4201D028F0E3FB03B05DF804FB2C
:10278000F8FF01200ADE002007B5074B1A68019206
:10279000064A1078019A1B689A4201D028F0D0FBB3
:1027A00003B05DF804FB00BFF8FF01200ADE002043
:1027B00013B50A4C2368019300DF032001DF03DF18
:1027C000FFF7B6F80022064B1A60019A23689A4276
:1027D00001D028F0B5FB02B010BD00BFF8FF01200A
:1027E00010DE002007B5074B00681A68C04301924D
:1027F000019A1B689A4201D028F0A2FB03B05DF851
:1028000004FB00BFF8FF012007B5084B08481A6811
:10281000019202682AB1019A1B689A4203D028F0FB
:102820008FFB0430F5E703B05DF804FBF8FF0120EF
:1028300000C0000807B50A4B1A680192094A1179CD
:1028400049B992F88C00019A1B6800F001009A4285
:1028500003D028F075FB0120F5E703B05DF804FB19
:10286000F8FF01201081000807B50A4B1A68019291
:10287000094A92F8C70108B192F8C801019A1B6889
:1028800000F001009A4201D028F05AFB03B05DF835
:1028900004FB00BFF8FF01201081000807B50121EB
:1028A000084B1A680192084A82F83B1282F83C02EF
:1028B000019A1B689A4201D028F042FB03B05DF8F0
:1028C00004FB00BFF8FF01207061002007B50D4B2D
:1028D0001A6801920C4A92F84C1639B192F84D06DA
:1028E000019A1B689A420AD028F02AFB074A92F8FC
:1028F000D80508B192F8D90500F00100F0E703B05F
:102900005DF804FBF8FF01207061002010810008D1
:1029100007B50121084B1A680192084A82F84C1643
:1029200082F84D06019A1B689A4201D028F008FBF4
:1029300003B05DF804FB00BFF8FF012070610020C8
:1029400007B50D4B1A6801920C4A92F8DC1639B1A2
:1029500092F8DD06019A1B689A420AD028F0F0FA34
:10296000074A92F8680608B192F8690600F001007B
:10297000F0E703B05DF804FBF8FF01207061002070
:102980001081000807B50121084B1A680192084A16
:1029900082F8DC1682F8DD06019A1B689A4201D0A3
:1029A00028F0CEFA03B05DF804FB00BFF8FF012069
:1029B0007061002007B5124B1A680192114AD2F8D3
:1029C000DC2542EA00018A4213D001210E4A82F836
:1029D0004E16D2F850160143C2F85016019A1B68E1
:1029E0009A4201D028F0ACFA03B05DF804EBFFF78F
:1029F000E5B9019A1B689A42F4D103B05DF804FB73
:102A0000F8FF0120108100087061002007B5094B14
:102A10001A680192084A92F8DA0508B1D2F8DC0582
:102A2000019A1B689A4201D028F08AFA03B05DF837
:102A300004FB00BFF8FF01201081000837B56FF0DC
:102A40000104174D174A2B6810680193430903F1DD
:102A5000007300F01F0003F550539B00844000DF1B
:102A6000022002DF1C60136814460133B3F5006FC7
:102A7000136004D3FFF7C8FE0068FFF769F903DFAE
:102A8000FEF756FF084B019AD3F8D4052368184483
:102A90002B689A4201D028F053FA03B030BD00BF32
:102AA000F8FF012010DE00201081000807B50A4A57
:102AB0000A4913680193012381F84436084B1B68C7
:102AC000C01AC1F8480601991368994201D028F04C
:102AD00037FA03B05DF804FBF8FF012070610020B5
:102AE00010DE002007B50A4B1A680192094A92F8D5
:102AF0006A1639B1D2F86C06019A1B689A4203D063
:102B000028F01EFA0448F7E703B05DF804FB00BFA5
:102B1000F8FF012010810008C027090007B5012136
:102B20000B4B1A6801920B4A82F8DE1642F21071C2
:102B300088422CBFC2F8E006C2F8E016019A1B6872
:102B40009A4201D028F0FCF903B05DF804FB00BF05
:102B5000F8FF01207061002013B50D4C012023689F
:102B60000193FEF715FFFEF7F7FE00DF0020FEF7EA
:102B70004FFF03DFFEF7DCFE019A23689A4201D083
:102B800028F0DEF902B0BDE81040FFF711BE00BF2B
:102B9000F8FF012013B50A4C23680193FFF724F9CD
:102BA000019A236840B99A4201D028F0C9F902B0CD
:102BB000BDE81040FFF7D0BF9A42F6D102B010BD79
:102BC000F8FF0120F0B5384D384F2B6889B00793D6
:102BD00027F0C4F83A68364B9A420FD1354B197A30
:102BE00009B91B7853B1079A2B689A4201D028F093
:102BF000A7F909B0BDE8F04004F092BB2E4EB242F6
:102C000031D12C4C2D4BE2689A422CDD00232C4A0A
:102C10002C4801922C4ACDE904330092CDE90233CD
:102C20002A4A2B4927F062F90120FDF7C9FB05204C
:102C3000FDF7DCFB27F092F8237A002BF7D0052074
:102C4000FDF7D4FB27F08AF8237813B9237A002BF9
:102C5000F5D00020FDF7B4FB2378DBB10120FEF7AF
:102C600097FE04F043FB3B68B34216D104DF194BD7
:102C70001C68041BFFF736FF84420ED30120FEF7C9
:102C800087FE079A2B689A42B1D109B0BDE8F0409F
:102C900004F02CBB04F044FBE5E7079A2B689A424A
:102CA000A5D109B0F0BD00BFF8FF0120F0810020E0
:102CB000ED7201085C570120217301088FB20800F2
:102CC00099AD04084CEA0708ABAD040886AD0408CA
:102CD00092AD04083CDE002007B5114C2368019337
:102CE000FDF70AFC28F06CF928F0E0F82060EFF31B
:102CF0001483DB0701D428F07FFA0A4A0021282038
:102D000027F096FD27F0A6FBFFF744FF04F008FB31
:102D1000FDF7F6FAFDF724FBFFF754FFFAE700BFD3
:102D2000F8FF012094EB070813B500210D4B0E4C62
:102D30001A680E48019201F13102D2B20A550A54C2
:102D400001310929F7D1002262724272019A1B688F
:102D50009A4201D028F0F4F8044802B0BDE81040CF
:102D600010F02ABAF8FF0120E6810020DC81002063
:102D700037B50F4958240A680E4D0192024608B132
:102D800013785BB94FF058320A4B1A605A601A72C6
:102D9000019A0B689A4209D028F0D2F8313B082BEF
:102DA00096BFEB5C147013700132E8E703B030BDDE
:102DB000F8FF0120E681002037B50546104C40F2AF
:102DC00001122368002101930E4B184629F072FD71
:102DD0003DB101234FF4807200F8013B29462AF0EF
:102DE000F1FD019A23689A4201D028F0A9F8022146
:102DF0006E20044A03B0BDE83040FEF75FBB00BF61
:102E0000F8FF012040DE002073B5514E514C33686D
:102E10004FF40B72002120460125019329F04AFD51
:102E2000204621224C4900F8015B2AF0CBFD062305
:102E3000E36202231922494904F13B00636384F8E9
:102E40002250656284F8285084F8305084F83A5053
:102E50002AF0B8FD84F85450FFF720FB84F8565050
:102E600084F85500FFF7CAF83D4B84F8570084F802
:102E70008E5004F1920203F1140153F8040B8B42BB
:102E800042F8040BF9D1142301253648A4F89030F8
:102E900084F8A65028F02EF9A4F8A800FFF742FA0B
:102EA00040B184F85850FFF73DFA112201462E48F0
:102EB0002AF088FDFFF71CFA48B1012384F86A3034
:102EC000FFF716FA2122014628482AF07BFD01254A
:102ED00084F88C50FFF7AEFC84F8CA5084F88D005B
:102EE000FFF7C2FC84F8CC5084F8CB00FFF74CFC11
:102EF00084F8CE5084F8CD00FFF7D8FB84F8D25088
:102F000084F8CF00FFF7E2FC84F8295284F8D3005C
:102F1000FFF716FD84F8D45084F82902FFF776FDF8
:102F20001122C4F8D8001249124884F8DC502AF063
:102F300049FD019A33689A4201D028F001F8112125
:102F40006E20044A02B0BDE87040FEF7B7BA00BF79
:102F5000F8FF012040DE002006B2040820DE002039
:102F600018B20408EADE002099DE0020ABDE002063
:102F700004D704081DDF002070B50446164D92B03A
:102F80002B68119306F01CFA07F0D2F85CB1237895
:102F90004BB16688402E06D10434002201A9204698
:102FA000FFF798FB18B90020FEF7F2FC06E0324666
:102FB00001A9204629F074FB0028F4D104F0B0F9EF
:102FC0000020FFF721FF119A2B689A4201D027F0C9
:102FD000B7FF12B070BD00BFF8FF0120F7B5204D5C
:102FE00004462B680E4601931E4B1A780AB1002244
:102FF0001A701D4F397851B10020FFF7BDFF002333
:10300000019A3B702B689A4228D027F099FF174B02
:1030100040F20312184629F04DFC012203460270CB
:1030200044703EB9013CE4B2622C0BD8104A52F80D
:1030300024603EB1012231469A700E484FF48072EE
:103040002AF0C0FC019A2B689A42DED103216E203F
:10305000064A03B0BDE8F040FEF730BA03B0F0BD59
:10306000F8FF0120400E0120410E012040DE00202B
:10307000C4AD040843DE002037B50D4C2268019230
:1030800088B1084602F06EFD054628B909490320BB
:10309000FFF7A4FF04F044F9019A236828469A42F6
:1030A00003D027F04DFF0448ECE703B030BD00BF6C
:1030B000F8FF012058AF040850AF04082DE9F34190
:1030C0001746194A0E4611681D46019190460BB1EC
:1030D00000232B60014601221448FFF75DF80446E7
:1030E00038B90B201249FFF779FF04F019F920468F
:1030F00001E03EB90D48019AD8F800309A420FD04D
:1031000027F01EFF002FF5D02B463A4631460748E0
:1031100014F0C6FB04460028ECD106490920E2E77A
:1031200002B0BDE8F08100BFF8FF0120C4680020B4
:103130006AAF0408B6AF04082DE9F04F87B01E4609
:10314000109B05460293119B0F4603931C4B0024D2
:10315000994690461A68DFF86CA0DFF86CB00592CB
:1031600036B32CBBA819039B22460193029B394618
:103170000093434604F086FB00210A2003F0F2FD91
:10318000034668B99AF8002012B99BF800208AB16A
:10319000002104200293FFF721FF04F0C1F8029BF5
:1031A000059A1846D9F800309A4206D027F0C8FE92
:1031B0002846D8E784F00104D2E707B0BDE8F08FD5
:1031C000F8FF0120400E0120410E0120F0B5044619
:1031D000324F89B03B6840F201120021304807931A
:1031E00029F068FB94F801313E461BB394F8023194
:1031F00003B300252B4B2C4A01932C4B2C490093F5
:103200002C482B46CDE90455CDE9025504F014F8BD
:103210002946072003F0A6FD014658B90420FFF710
:10322000DDFE079A3B689A421FD109B0BDE8F04025
:1032300004F076B894F803314BB194F8043133B10B
:10324000012003F04FFE10B9079A3368EBE794F8BA
:10325000053193B194F806317BB103F073FF014659
:1032600058B9079A33689A4201D027F069FE0420C2
:1032700009B0BDE8F040FFF7B1BE237843B10123A8
:1032800007484FF4807200F8013BE11829F03AFA40
:10329000034A02216E20FEF711F9D5E7F8FF01205D
:1032A00040DE00203FB4040837B40408ABAD040886
:1032B00092AD04084CEA070837B5144D04782A6823
:1032C000019204B14478002003F00CFE50B9019A39
:1032D0002B689A4201D027F033FE03B0BDE830409E
:1032E00004F01EB844B10A48FFF7F2F8FEF766FD95
:1032F0000848FFF761FDEAE703F0ECFE08B1064875
:10330000F7E721460C20FFF769FEE0E7F8FF012010
:10331000D612050889B0040895B0040830B5002419
:10332000164D89B02B68164A0793164B1649CDE9FE
:103330000243164B16480193164BCDE90444009303
:10334000234603F079FF2146062003F00BFD0146DA
:1033500040B90420FFF742FE079A2B689A4207D033
:1033600027F0EEFDFFF7F8FB0B48FFF725FDF3E72D
:1033700009B0BDE8304003F0D3BF00BFF8FF012023
:1033800037B404080EB6040892AD040825B6040844
:103390004CEA0708ABAD040836B60408F0B50024C3
:1033A0001F4D89B02B681F4A07931F4B1F4901937C
:1033B0001F4B074600931F482346CDE90444CDE93F
:1033C000024403F039FF2146072003F0CBFC0146FD
:1033D00040B90420FFF702FE079A2B689A4219D0E1
:1033E00027F0AEFD144E40F202422146304629F04D
:1033F00061FA39683046B1F5806F28BF4FF48061BB
:1034000020F8021B0FF098FE32460A216E20FEF7CC
:1034100055F8E1E709B0BDE8F04003F081BF00BF17
:10342000F8FF012037B40408F8B1040892AD04088D
:10343000ABAD04084CEA070840DE0020F0B52A4D89
:1034400089B02B6804460793FFF7F4F92F46064628
:1034500060B1079A2B689A4201D027F071FD0120D4
:10346000224909B0BDE8F040FFF7B8BD204B0590F8
:103470000493204B204A0393204B21490293214B74
:103480000193214B00930346204803F0D5FE3146BB
:10349000072003F067FC014658B90420FFF79EFDA2
:1034A000079A2B689A42D8D109B0BDE8F04003F0E2
:1034B00037BF237883B194F8AD3113B194F8AE31AE
:1034C00053B9601C15F0E8FA30B911490320FFF731
:1034D00085FD079A3B68E5E72046FFF719F80D4898
:1034E000FFF76AFCF5E700BFF8FF01202DB20408E2
:1034F0006CB2040873B204085CB2040885B2040814
:1035000092AD04089AB20408AEB204084CEA070867
:10351000C3B20408E9B20408F0B5314D87B02B6896
:1035200004460593FFF786F92E4660B1059A2B688D
:103530009A4201D027F004FD01202A4907B0BDE8D6
:10354000F040FFF74BBDA378A3B1626822F04001C1
:1035500080290FD0B2F5807F0CD023490320FFF7DC
:103560003DFD059A2B689A42E4D107B0BDE8F040D2
:1035700003F0D6BE207800B1607800F0010063B39C
:103580006168227A02B1627AA37A02F0010203B181
:10359000E37A257B03F001030DB104F10D05A77F4C
:1035A0000FB104F11F0794F840C0BCF1000F01D027
:1035B000D4F844C094F848E0BEF1000F01D094F86C
:1035C00049E0CDE902CECDE9005705F011FF059A9B
:1035D00033689A42AED107B0F0BD8021D1E700BF79
:1035E000F8FF01202DB2040876B4040807B50B4B90
:1035F00001781A680192019A1B6851B19A4201D070
:1036000027F09EFC4188043003B05DF804EB06F01F
:1036100011B89A42F4D10846F6E700BFF8FF01203E
:1036200013B5144C23680193FFF704F9014658B908
:10363000019A23689A4201D027F082FC0B2002B045
:10364000BDE81040FFF7CABC002003F04BFC019A14
:10365000236830B99A42EFD102B0BDE8104003F0C0
:103660005FBE9A42E8D1012002B0BDE8104005F0EB
:103670005BBF00BFF8FF012013B50B4C236801931B
:1036800005F09EFE06F054FD08F010FD019A236837
:103690009A4201D027F054FC0021042002B0BDE87A
:1036A0001040FFF79BBC00BFF8FF012013B50A4C88
:1036B000012023680193FEF76BF903F017FE019ACE
:1036C00023689A4201D027F03BFC044802B0BDE8D1
:1036D0001040FFF771BB00BFF8FF0120F5B00408F0
:1036E00070B56C4D88B02B6804460793837C2E46DA
:1036F000ABB903789BB990F8343083B990F8363081
:103700006BB990F83C3453B963490320FFF766FC6A
:10371000079A2B689A4200F0B88027F011FC01202C
:1037200003F0E0FB10B9079A3368F3E7A37CDBB141
:1037300000255A4B5A49039304F113030293594B42
:1037400059480193594BCDE904550093584A2B46EB
:1037500003F072FD2946072003F004FB20B9002185
:103760000420FFF73BFCDEE72378B3B100254B4B89
:103770004B490393631C02934E4B4B4801934B4BB5
:10378000CDE9045500934A4A2B4603F055FD2946DE
:10379000072003F0E7FA0028E1D094F83430DBB1D9
:1037A00094F83510444A454B0025002908BF1346BC
:1037B000434A3B49CDE901323C4B3B480093CDE9BC
:1037C000045503952B463A4A03F036FD2946072057
:1037D00003F0C8FA0028C2D094F83630ABB1002507
:1037E000384B2F490293384B2F4801932F4BCDE98B
:1037F0000455009303952B462D4A03F01DFD2946E1
:10380000072003F0AFFA0028A9D094F83C34ABB1FC
:1038100000252E4B224902932D4B23480193234B25
:10382000CDE90455009303952B46214A03F004FD8E
:103830002946072003F096FA002890D0A37C1BB1FC
:1038400004F11300FEF770FB237813B1601CFEF740
:103850008BFB94F834301BB194F83500FEF7AEFBC7
:1038600094F8363023B1218F04F13A00FEF7E0FBE3
:1038700094F83C341BB1D4F84004FFF74FF9FEF73D
:103880009DFA1448FFF798FA4DE708B0BDE870407C
:1038900003F046BDF8FF012006B00408640A0508DD
:1038A00092AD04081AB004084CEA0708ABAD04084E
:1038B00037B4040829B00408F3AF0408E1AF0408E2
:1038C0003CB0040848B0040850B0040860B00408D4
:1038D00067B0040878B0040813B50A4C2268019256
:1038E000027812B14068FFF765F8019A23689A429E
:1038F00001D027F025FB044802B0BDE81040FFF7D7
:103900005BBA00BFF8FF0120D3AF04082DE9F041F6
:103910004B4D88B02B680446079390F84C302F46E7
:103920007BB190F84D3063B1012003F0DBFA50BB5E
:10393000079A2B689A421DD108B0BDE8F04103F008
:10394000EFBCFEF777FF88B905462378002B5CD0E3
:103950006268182A03D83B4BD340DB0752D40320BC
:103960003949FFF73BFB079A3B68E3E7079A3B6857
:103970009A4201D027F0E4FA0120344908B0BDE8AA
:10398000F041FFF72BBB0125DFE72378002B3AD16D
:103990000C20217A01B1617AA27A01F0010102B111
:1039A000E27A237B02F001020BB104F10D03A67F42
:1039B00026B304F11F0C94F840600EB194F84160F6
:1039C00094F842E006F00106BEF1000F01D094F831
:1039D00043E094F84480B8F1000F11D0A46CCDE915
:1039E0000345CDE9016ECDF800C005F043FB079A11
:1039F0003B689A42BED108B0BDE8F081B446DAE730
:103A00004446ECE71DB16068C3E7002DC0D1002635
:103A10000F4B104A0193104B104900931048334646
:103A2000CDE90466CDE9026603F006FC31460720C5
:103A300003F098F901460028A7D1042091E700BFC0
:103A4000F8FF0120001004014FB404082DB204084F
:103A500062B4040837B40408ABAD040892AD04089E
:103A60004CEA070807B5074B1A680192019A1B68D0
:103A70009A4201D027F064FA03B05DF804EB05F038
:103A800087BB00BFF8FF012070B50024174D88B038
:103A90002B68174A0793174B17490193174B064694
:103AA000009317482346CDE90444CDE9024403F0CE
:103AB000C3FB2146072003F055F9014640B9042015
:103AC000FFF78CFA079A2B689A420AD027F038FA47
:103AD0007068FEF7EBFFFEF771F90A48FFF76CF923
:103AE000F0E708B0BDE8704003F01ABCF8FF012011
:103AF00037B404088CB4040892AD04089DB40408DB
:103B00004CEA0708B0B404082DE9FF41474F0021F3
:103B10003B68EC2206464648039328F0CBFEFEF7AE
:103B200089FE014640B90B20FFF758FA039A3B681B
:103B30009A4278D027F004FA012003F0D3F910B9A3
:103B400003F0EEFBF2E706F1480196F84700FFF7B5
:103B500093FA80460028E9D096F82430006C0BB127
:103B600006F12500314602AB31F8042BFFF7A6FA27
:103B700005460028DAD014F07FF996F8453005F1B3
:103B800048047BB196F8463063B1204604F0B8F99A
:103B900001210B2003F0E6F8014618B90420FFF7D5
:103BA0001DFACDE7224B2A6802991A606A685960AB
:103BB0009A60202203F10E009A8105F1280605F192
:103BC000080252F804CBB24240F804CBF9D10022EB
:103BD00083F82E20012283F852202122A3F85420BA
:103BE000144A2046203450F8046BA04242F8046B7B
:103BF000F9D10078107095F848202846012A04BFB2
:103C0000002283F85620012283F878207123009344
:103C1000D8F82420084B14F03BFC054A0C216E20F8
:103C2000FDF74CFC8CE704B0BDE8F081F8FF012003
:103C300040DE002096DE0020B9DE0020F7B5284CDB
:103C40000546236827460193FEF7F4FD014658B95F
:103C5000019A23689A4201D027F072F90B2003B031
:103C6000BDE8F040FFF7BAB96B6863B91D4903209E
:103C7000FFF7B4F9019A23689A42EDD103B0BDE889
:103C8000F04003F04DBB2A680AB91749EFE7D34269
:103C900001D31649EBE7012003F024F90028E9D00D
:103CA00005F10901287AFFF7E7F9064690B10023EC
:103CB000006C1A461946FFF701FA024650B1019905
:103CC00023689942C8D13146284603B0BDE8F04088
:103CD00006F0ECB8019A3B689A42BDD103B0F0BD42
:103CE000F8FF012026B504084FB5040879B504088B
:103CF00013B50F4C23680193037873B90D49032062
:103D0000FFF76CF9019A23689A4201D027F018F95D
:103D100002B0BDE8104003F003BB019A23689A4249
:103D2000F4D1083002B0BDE8104006F0E5BA00BF9B
:103D3000F8FF0120A1B504082DE9F0439F4EAFB074
:103D400033680021822204469D482D9328F0B2FD5D
:103D5000FEF770FD014648B90B20FFF73FF92D9A99
:103D600033689A4200F0748127F0EAF8012003F0EA
:103D7000B9F810B903F0D4FAF1E704F1250194F889
:103D80002400FFF779F905460028E8D004F104087B
:103D9000002322884146006CFFF790F981460028F5
:103DA000DDD014F069F894F83C301BB1002185484F
:103DB00026F0AAF904F140020CAF009294F83C30CE
:103DC00094F8E51D01974A46284602F085F820B987
:103DD00003207D49FFF702F9CCE794F83A30002B35
:103DE00000F0278194F83B30002B00F0228194F8FA
:103DF0003C301422002B72D0744907A829F0E2FD50
:103E0000D4F8E00DB4F84020092885BF0A23B0FBA0
:103E1000F3F32023303388BFDBB28DF825300A233B
:103E2000B0FBF3F103FB1101092A88BFB2FBF3F3E6
:103E300001F1300198BF20238DF826104FF00A01C0
:103E400084BF3033DBB28DF82B30B2FBF1F301FBD2
:103E5000132330338DF82C302288002A00F0D280D2
:103E600061685B4894F8E53D81423DD1053A18BF51
:103E70000122002B0CBF13460123E268E96B002AE4
:103E8000A8BF43F00103226943EAD273626943EA9F
:103E9000D272A3688B420CBF134642F00103002B81
:103EA00000F0B0804FF000094A4B4B4A04934B4B53
:103EB0004B49CDE902934B4B4B4801934B4BCDF80B
:103EC000149000934B4603F0B7F94946012002F0E5
:103ED00049FF0146002840F0958004207AE74449D4
:103EE00007A829F06FFDB7E7424881420FD1042AA5
:103EF00008BF012B14BF01230023A26843EAD27339
:103F0000E26843EAD273226943EAD273C7E73A48C8
:103F1000814217D1052A08BF012B14BF01230023BA
:103F2000E268002AA8BF43F00103226943EAD27382
:103F3000626943EAD273A168EA6B914218BF43F009
:103F40000103ACE72D48814219D1052A08BF042B93
:103F500014BF01230023E268002AA8BF43F0010335
:103F6000226943EAD273626943EAD273AA7D82F07E
:103F7000010213436A7D82F001021343DBE720480C
:103F800081423FD1052A08BF032B14BF0123002320
:103F9000E268002AA8BF43F00103226943EAD27312
:103FA000626943EAD273AA7D82F0010213436A6B0D
:103FB000002A08BF43F00103BDE700BFF8FF01205E
:103FC00040DE002046B1040858B104086DB1040871
:103FD0002C00008098B1040889B10408A2B104083B
:103FE00092B10408B3B1040874EA0708C6B1040822
:103FF00080B104082D000080300000803100008076
:1040000054000080A86B94F8E52DE8B9D31E5A42FD
:104010005A411546D0B129F0FDFC431C228807A95E
:10402000CDE9008238462A46FFF786F800283FF49B
:1040300096AE39468222084829F0C4FC064A1E2161
:104040006E20FDF73BFA95E60122E2E70346E5E73D
:104050002FB0BDE8F08300BF40DE00202DE9F04F17
:10406000484E494D336887B00021C822044628468F
:10407000059328F01FFCFEF7DDFBB246014658B958
:10408000059A33689A4201D026F05AFF0B2007B0F8
:10409000BDE8F04FFEF7A2BF04F12609A18C484607
:1040A00003F06CFE0021072002F05CFE014628B9F7
:1040B0000420FEF793FF059A336806E0012002F022
:1040C00011FF48B9059ADAF800309A42DCD107B0FE
:1040D000BDE8F04F03F024B904F2274194F8260418
:1040E000FEF7CAFF0746002843D02146002331F8D7
:1040F000042B006CFEF7E2FF8046002839D0002137
:10410000224803F0CFF805F186030193A38C94F8BD
:104110003D24009341464B46384607F02BFA814632
:1041200010BB2B464FF0010B404603F801BBCDE915
:10413000023313F0A1FE029B94F83D14CDE90093E5
:1041400042464B46384601F0C7FE10B910490920D7
:10415000AFE741232A4628216E2085F883B0A5F8D1
:104160008430FDF7ABF9ADE70A490920FEF736FFC9
:10417000A8E7059ADAF800309A4285D107B0BDE881
:10418000F08F00BFF8FF012040DE0020F0B40408EB
:10419000F8B4040810B504082DE9F043324D85B099
:1041A0002B680446039303782E464BB92F4903200E
:1041B000FEF714FF039A2B689A4248D026F0C0FEFF
:1041C00090F8C8300BB92A49F1E700F2CD4190F8D8
:1041D000CC04FEF751FF814600283DD00021254840
:1041E00003F060F8B4F88430412B2DD104F186033C
:1041F00004F1CC0704F101080093B4F8CA20434647
:104200003946484607F0E4F90546E8B9404603F068
:10421000E1FD2946012002F0A5FD20B9002104207E
:10422000FEF7DCFE0DE0B4F8CA10384603F004FED9
:104230002946012002F096FD0028EFD00E48FEF737
:10424000BBFD039A3368B7E70C490320E8E705B0E4
:10425000BDE8F04303F064B8039A2B689A42ADD1ED
:1042600005B0BDE8F08300BFF8FF0120B9B5040830
:10427000CDB50408E1B50408EBB50408FCB50408A5
:1042800037B51C4C054623680193FEF7D3FA014667
:1042900058B9019A23689A4201D026F051FE0B20AA
:1042A00003B0BDE83040FEF799BE012002F01AFECF
:1042B00040B9019A23689A42EFD103B0BDE830407B
:1042C00003F02EB82946002331F8042B0A48FEF7E4
:1042D000F5FE019A0146236838B19A42DDD128469D
:1042E00003B0BDE8304007F07FBF9A42D5D103B09C
:1042F00030BD00BFF8FF01203D70050807B5074B32
:104300001A680192019A1B689A4201D026F018FEA1
:1043100003B05DF804EB08F0F3B900BFF8FF01202B
:104320002DE9F043394D3A4E2B6893B00021162207
:1043300004463046119328F0BDFAFEF77BFA014699
:1043400040B90B20FEF74AFE119A2B689A4259D0C9
:1043500026F0F6FD012002F0C5FD10B902F0E0FFE5
:10436000F2E704F104090023228849462948FEF7B0
:10437000A5FE0028E8D03146142321F8023B13F0B3
:10438000E9FD0028E0D094F824309BB394F8258010
:10439000B8F1000F2ED010221F4902A829F012FBFD
:1043A000A36823F00043892B06D049F2BE12934242
:1043B00026D00026B04600E01E26292200210DF15D
:1043C0001A0028F077FA47F6300312AF27F8303D8D
:1043D000424633460DF11A0110480BF0DFFC2388EA
:1043E00002A9CDE90093002338461A46FEF7A4FE41
:1043F0000028A9D0064A39216E20FDF75FF8ADE705
:104400001F26DAE713B0BDE8F08300BFF8FF0120F4
:1044100040DE00203D70050880B1040842DE002027
:1044200037B5244C002123685E22054622480193BB
:1044300028F040FAFEF7FEF9014658B9019A2368C0
:104440009A4201D026F07CFD0B2003B0BDE830403D
:10445000FEF7C4BDA98C05F1260003F08FFC0021F6
:10446000072002F07FFC014658B90420FEF7B6FD94
:10447000019A23689A42E5D103B0BDE8304002F0CA
:104480004FBF012002F02EFD0028F1D02946002365
:1044900031F8042B0948FEF711FE014620B1064A07
:1044A000284608F087F9E3E7019A23689A42C9D1C0
:1044B00003B030BDF8FF012040DE00203D7005084C
:1044C000F0B5284E8DB0326805460B92027832B9AD
:1044D00025490320FEF782FD02F022FF0CE090F850
:1044E0005E300BB92149F4E708F0B0F9044648B151
:1044F0001F490320FEF772FD0B9A33689A422ED0B3
:1045000026F01EFD014629220DF1020028F0D2F905
:1045100047F630030CAF27F8303D0DF1020123467A
:104520002246281D0BF03AFC384603F053FC214686
:10453000012002F017FC10B900210420CAE7B5F8E9
:10454000601005F1620003F077FC2146012002F0C3
:1045500009FC0028F0D00748FEF72EFCBCE70DB0A0
:10456000F0BD00BFF8FF0120B9B50408CDB50408BF
:10457000FCB50408EBB504082DE9F04F664DADF528
:10458000037D2B6804468193FEF754F9A846014643
:1045900050B90B20FEF722FD819AD8F800309A42DC
:1045A00000F0B58026F0CCFC94F8243023B95B49A8
:1045B0000320FEF713FD0FE094F825310BB958499D
:1045C000F6E7B4F8263113F00F0501D05549EFE7AF
:1045D000012002F087FC10B902F0A2FEDCE72146C0
:1045E0002B4631F8042B5048FEF768FD8146002821
:1045F000D2D094F828550DB194F8295594F82A751D
:104600000FB194F82B7594F82C3504F1250A1BB1E1
:1046100094F82D35002B75D1002D5FD1AB4640AEFF
:104620004FF482725146304629F0CCF93F4B404955
:104630004FF48272002F18BF1946304629F098F9BE
:104640003C4B3D494FF48272BBF1000F18BF194635
:10465000304629F08DF9304629F0DCF93246034620
:10466000202109F12800009612F02EFC03AF002152
:1046700040F20442314828F01DF904F59479394696
:10468000304675B320F0EAFDB4F83035B4F8262191
:10469000102B0CBF04F2325348AB00972849484610
:1046A00021F020FD0123254A30211370B4F8263172
:1046B0006E205380FCF702FF8EE7AB46002FAED092
:1046C000514605F0010003F0E3FB0021012002F058
:1046D00049FB01460028A2D104206AE74FF0000BF5
:1046E000ECE721F011F8B4F83035B4F82621102B9E
:1046F0000CBF04F2325348AB00971149484621F0F1
:10470000B1FDCFE7002DD8D14FF0010BD8E70DF563
:10471000037DBDE8F08F00BFF8FF0120ADB00408B5
:10472000BDB00408CFB004083D700508A1B004086E
:10473000A4B00408A7B00408AAB0040840DE002012
:1047400044DE00202DE9F043904EA1B033680021F3
:10475000EE2204468E481F9328F0ACF8FEF76AF864
:10476000014648B90B20FEF739FC1F9A33689A427C
:1047700000F0098126F0E4FB94F8A412251D09B18C
:1047800004F2A521284603F0F9FB0021072002F0DE
:10479000E9FA014618B90420FEF720FC03E00120E5
:1047A00002F0A0FB10B902F0BBFDDEE7237813B9DD
:1047B00078490320F0E707A9284607F0C5F8002844
:1047C000F6D0754B9DF81F2002939DF81C3043F0E6
:1047D000004343EA02639DF81D2043EA02239DF84B
:1047E0001E2043EA024303939DF820309DF82320C6
:1047F00043F0004343EA02639DF8212043EA022389
:104800009DF8222043EA024304939DF824309DF84A
:10481000272043F0004343EA02639DF8252043EA42
:1048200002239DF8262043EA024305939DF8283091
:104830009DF82B2043F0004343EA02639DF82920B2
:1048400043EA02239DF82A2043EA0243069394F8A0
:10485000A533002B62D004F2A6380023052202A95A
:104860004046FEF72BFC054600283FF47EAF277933
:1048700077B104F105094949484628F0D9F8B0FA5A
:1048800080F7474948467F0928F0D2F8002848D0E9
:104890004FF000090021434802F004FD04F5D270F6
:1048A000B4F8A211002F3FD00A463F4B01462846DC
:1048B00006F010FE0746002862D1284613F0DCFA05
:1048C0003A49404628F0B4F8314C00284ED02770C1
:1048D000012384F883302123354AA4F8843005F17C
:1048E000680105F1480353F8040B8B4242F8040BAE
:1048F000F9D11B783621137095F84830244A012BE2
:1049000004BF002384F88630012384F8A8304123B3
:104910006E20A4F8AA30FCF7D1FD44E7DFF88C80C4
:104920009BE74FF00109B5E7B9F1000F06D00A4641
:104930001D4B0146284606F0E5FDBBE70FAA04F231
:10494000A52417F035FA204629F064F817AA014685
:10495000204617F02DFA144B4A460193402329466E
:10496000009314480FAB06F005FEA3E7224601238F
:10497000394602F8013B2846822313F019FAA7E7CB
:104980000D49092008E721B0BDE8F083F8FF0120B8
:1049900040DE0020C0B404080D000080D1B404083B
:1049A000D5B40408F0B40408ECDE00203D7005081E
:1049B000C6DE002008B70408D9B4040870B5534D0A
:1049C00090B02B6800214622044651480F9327F0EF
:1049D00071FFFDF72FFF014648B90B20FEF7FEFAE5
:1049E0000F9A2B689A4200F08F8026F0A9FA261DB4
:1049F000304603F097FB0021072002F0B3F901468F
:104A000018B90420FEF7EAFA03E0012002F06AFA7E
:104A100010B902F085FCE3E7237813B93D49032080
:104A2000F0E707A9304606F08FFF0028F6D03A4B92
:104A30009DF81F2002939DF81C3043F0004343EA89
:104A400002639DF81D2043EA02239DF81E2043EADD
:104A5000024303939DF820309DF8232043F0004348
:104A600043EA02639DF8212043EA02239DF82220B5
:104A700043EA024304939DF824309DF8272043F035
:104A8000004343EA02639DF8252043EA02239DF890
:104A9000262043EA024305939DF828309DF82B20F9
:104AA00043F0004343EA02639DF8292043EA0223CE
:104AB0009DF82A2043EA0243069394F8E631F3B1C5
:104AC00004F2E7100023052202A9FEF7F7FA0028F6
:104AD00086D00022114E10AB43F83C2D04F5D27164
:104AE000324613F097FC60B9012306F8043C019BA1
:104AF000321F53803E216E20FCF7E0FC89E7084816
:104B0000E0E7084909207DE710B070BDF8FF0120FB
:104B100040DE0020C0B404081100008044DE002004
:104B20003D700508D9B104082DE9F043354F364CE6
:104B30003B689DB000214822054620461B9327F084
:104B4000B9FEFDF777FE014640B90B20FEF746FAA5
:104B50001B9A3B689A4252D026F0F2F995F824301D
:104B600033B903202949FEF739FA02F0D9FBEFE700
:104B7000002605F1040905F12808EB8C2988424636
:104B80004846009603F050FE3146072002F0EAF84E
:104B9000014608B90420E6E7012002F0A3F9002845
:104BA000E3D033462A8849461948FEF787FA064675
:104BB0000028CDD013AAE98C4046283617F0F8F823
:104BC00003AA13A930460DF0FBFA03A913A80DF0B0
:104BD0009BFB0123237084F824302023211D13A87C
:104BE0006380E38411F03EFC04F12801304611F0AB
:104BF00039FC224648216E20FCF760FCB5E71DB069
:104C0000BDE8F083F8FF012040DE002005B1040874
:104C1000FB6F05082DE9F047404F414D3B689EB0C2
:104C200000212422044628461D9327F043FEFDF769
:104C300001FE014640B90B20FEF7D0F91D9A3B68F2
:104C40009A4267D026F07CF994F8243033B935497C
:104C50000320FEF7C3F902F063FBEFE794F8483056
:104C60001BB1B4F84A30202B01D02F49F0E794F85B
:104C70006C3023B1B4F86EA0BAF1200F01D02B49EB
:104C8000E6E74FF00109261D04F12808E38C21888E
:104C900042463046CDF8009003F0C6FD00210720C3
:104CA00002F060F8014608B90420D2E7484602F055
:104CB00019F90028CFD03146002322881C48FEF77E
:104CC000FDF906460028B9D0E18C15AA40462836E1
:104CD00017F06EF805AA15A930460DF071FA05A96E
:104CE00015A80DF011FB2B1DE18C029304F170034C
:104CF0004C34019332464046009415AB85F8009041
:104D0000A5F802A011F0D6FB2A464A216E20FCF736
:104D1000D5FBA0E71EB0BDE8F08700BFF8FF01207B
:104D200040DE002005B1040816B1040830B10408C3
:104D3000FB6F0508F0B5304F89B03A68044607921A
:104D400090F824200AB96823836294F8280021F09F
:104D50002DFC064630B929490320FEF73FF902F041
:104D6000DFFA06E0FDF766FD014640B90B20FEF7CD
:104D700035F9079A3B689A423CD026F0E1F80120C9
:104D800002F0B0F80028EAD0292200211C48251D95
:104D900027F090FD0023228829461A48FEF78EF955
:104DA0000028E6D0164A94F8281013F001F90028DC
:104DB000DFD094F82C30BBB194F82D30A3B1102281
:104DC000314603A828F0FEFD10220F4903A828F061
:104DD000CFFD23880122CDE9005303A90023084811
:104DE000FEF7AAF90028C4D0054A44216E20FCF73A
:104DF00065FBB4E709B0F0BDF8FF01208AB30408F1
:104E000040DE0020EC6F05087AC204082DE9F04F5F
:104E10006B4DADF6940D2B680446CDF88C380378B5
:104E200023B968490320FEF7D9F8A8E041F26212DD
:104E300090F8F030825C00F5B457134441F2302210
:104E4000825C13443A78134441F24872825C134402
:104E500041F6B412825C9B1801D15B49E2E7012B59
:104E600001D05A49DEE700F108060021304607F07C
:104E7000F5FD01460028D5D194F8F03043B194F8FF
:104E8000301004F1F80007F045FE01460028C9D1B2
:104E900041F26213E35C4BB104F58B5094F830108F
:104EA000083007F085FE01460028BBD141F23023CF
:104EB000E35C4BB104F5915094F83010183007F0D2
:104EC000A3FE01460028ADD13B783BB104F5B450B8
:104ED000083007F063FF01460028A3D141F2487370
:104EE000E35C5BB194F8781004F5BA5081F00101ED
:104EF0000C3007F07FFF0146002893D141F6B41330
:104F0000E35C3BB104F5CD50163007F0ABFF014632
:104F1000002887D104F58B531B78B3B141F261139C
:104F200014F803B094F878308BB1012104F18000BB
:104F300007F094FD014600287FF474AF226BD4F88B
:104F4000A8309A4208D022496CE79B46EAE7BBF1B9
:104F5000000F01D01F4965E7FDF76CFC014650B911
:104F60000B20FEF73BF8DDF88C282B689A4200F006
:104F70008B8125F0E5FF012001F0B4FF10B902F0AC
:104F8000CFF9F0E794F8300021F010FB94F8783076
:104F90000BF0010B81460BB323AA94F8A81004F17F
:104FA000CC0021F04DFBD4E910234946CDE9002384
:104FB00023A85A4608F0D6FB80B90749042032E7F7
:104FC000F8FF01209EB30408A1B50408B1B304089A
:104FD000D4B30408FBB304081DB4040840F6480227
:104FE0000021AB4827F066FC0023228904F10C0164
:104FF000A848FEF763F882460028B4D012F03CFFC0
:1050000094F87830002B00F0ED8004F1800818AAA5
:1050100098F82810504612F0CBFF94F8F0303BB1CE
:10502000B4F8581504F5AC6008F058FDA4F858051C
:1050300094F8F0303BB14A4604F1F801404608F0DC
:105040004FFC0028B9D041F26213E35C43B104F590
:105050008B514A460831404607F0B4FF0028ACD0D7
:1050600041F23023E35C4BB104F5915118AB4A4651
:105070001831404608F02CF800289ED03B7843B108
:1050800004F5B4514A460831404608F047F9002873
:1050900093D041F24873E35C63B194F8783004F53F
:1050A000BA5183F001034A460C31404608F0DAF960
:1050B000002882D041F6B413E35C4BB104F5CD5126
:1050C0004A461631404608F0DBFA00283FF475AF37
:1050D0004FF40063704A0AF1490102A821F032FB43
:1050E00094F87830002B7FD04FF4006323AA04F1AA
:1050F000CC010DA821F026FB94F8F03053B104F157
:10510000F80304F1800200210DA807F0CDFE00286D
:105110003FF435AF41F26213E35C53B104F58B52B7
:10512000083204F180010DA807F0A4FF00283FF425
:1051300026AF41F23023E35C53B104F591521832AB
:1051400004F180010DA808F09DF800283FF417AF86
:105150003B7853B104F5B452083204F180010DA834
:1051600008F058F900283FF40AAF41F24873E35CB5
:1051700053B104F5BA520C3204F180010DA808F0C5
:1051800031FA00283FF4FBAE41F6B413E35C53B1AF
:1051900004F5CD52163204F180010DA808F0C2FAD0
:1051A00000283FF4ECAE5B460DAA314602A808F099
:1051B00025FB00283FF4E3AE0126354C0AF1280117
:1051C00004F60802267002A821F0D8FA4023608075
:1051D00084F80468A4F80638224646216E20FCF7BD
:1051E0006DF9CCE6B04612E794F8F0304BB104F11B
:1051F000F8033246514602A807F056FE00283FF455
:10520000BEAE41F26213E35C4BB104F58B5208323F
:10521000314602A807F02EFF00283FF4B0AE41F25D
:105220003023E35C4BB104F591521832314602A8A9
:1052300008F028F800283FF4A2AE3B784BB104F503
:10524000B4520832314602A808F0E4F800283FF4CE
:1052500096AE41F24873E35C4BB104F5BA520C329E
:10526000314602A808F0BEF900283FF488AE41F6A6
:10527000B413E35C002B9FD004F5CD5216323146B7
:1052800002A808F04FFA94E70DF6940DBDE8F08FF0
:1052900040DE0020EC6F050844DE00202DE9F043DD
:1052A0004A4E91B03368002140F204420446484817
:1052B0000F9327F0FFFAFDF7BDFA454F014640B9BD
:1052C0000B20FDF78BFE0F9A33689A427AD025F0B7
:1052D00037FE94F8280021F069F920B93D490320F0
:1052E000FDF77CFE32E094F850300BB93A49F6E70E
:1052F000B4F852303F2B01D83849F0E794F82C30FD
:105300000BB93749EBE7E38D202B01D03549E6E7B0
:1053100004AD04F130092A4694F82810484621F0DB
:105320008FF9314B3149009331480195314B324A65
:1053300002F0BAFF0021012001F014FD10B9002194
:105340000420CDE7012001F0CDFD10B901F0E8FF08
:10535000B9E72146002331F8042B2848FDF7AEFEBB
:105360000028B0D0B4F852803B1DA8F13005CDE93B
:10537000015304F18403009304F1740204F1540313
:10538000494612F0CFFE10B91D490920A8E70124B3
:10539000B84418F82D1C1B48A94294BF6D1A6D1B08
:1053A000A9B279803C70224603F0FCF80021204627
:1053B00001F0D8FC0028C2D0054A4C216E20FCF731
:1053C0007DF8C3E711B0BDE8F08300BFF8FF01200E
:1053D00040DE00208AB30408F7B204080BB30408C7
:1053E00025B304083CB304085FB3040892AD040875
:1053F0004CEA07084FB3040837B40408EC6F0508FB
:1054000070B3040844DE0020F0B5354C89B0236841
:1054100000213A2206463348079327F04BFAFDF75E
:1054200009FA2746014658B9079A23689A4201D0DB
:1054300025F086FD0B2009B0BDE8F040FDF7CEBD9C
:10544000012001F04FFD40B9079A23689A42EFD13D
:1054500009B0BDE8F04001F063BF304630F8041BEE
:1054600008F0C4FE30B9079A23689A42E0D11E4979
:105470000920E0E796F82C3000F14905FBB196F8D9
:105480002D30E3B10026284608F08CFDCDE90466F6
:1054900003968368154A029343681549019303688C
:1054A00014480093144B01F0C7FE3146072001F069
:1054B00059FC014618B90420FDF790FDC4E7094CDA
:1054C00001232146392201F8013B284608F036FD28
:1054D0002246D0216E20FBF7F1FF079A3B68B5E723
:1054E000F8FF012040DE0020B6AF040837B40408FE
:1054F00092AD04084CEA070888B5040870B5364D2B
:1055000098B02B680021242206463448179327F0D0
:10551000D1F9FDF78FF9014640B90B20FDF75EFD8B
:10552000179A2B689A4255D025F00AFD012001F008
:10553000D9FC10B901F0F4FEF2E7304630F8041B54
:1055400008F054FE10B926490920E7E796F82C30F8
:1055500000F149043BB396F82D3023B3002606AA88
:105560002021204625F082FD1022402106A802F0CD
:1055700037F9CDE90466C3681A4A039383681A4968
:10558000029343680193036818480093184B01F095
:1055900053FE3146072001F0E5FB014618B904200F
:1055A000FDF71CFDC6E701230C4A04F12006137029
:1055B0002023538023460432144618685968083360
:1055C00003C4B3422246F7D1044AC9216E20FBF737
:1055D00075FFAFE718B070BDF8FF012040DE002076
:1055E000B6AF040837B4040892AD04084CEA0708C3
:1055F00088B5040837B51A4C054623680193FDF7B2
:1056000019F9014658B9019A23689A4201D025F048
:1056100097FC0B2003B0BDE83040FDF7DFBC012054
:1056200001F060FC40B9019A23689A42EFD103B0BF
:10563000BDE8304001F074BE284608F01FFF284640
:105640000AF0DAF90023074A019913702368994296
:10565000DDD1CB216E2003B0BDE83040FBF72EBF7B
:10566000F8FF012040DE002013B51A4C2368019397
:1056700009F094F938B308F061FBB8B16822002151
:10568000154827F017F9144808F040FE124AE621A1
:105690006E20FBF713FF019A23689A4201D025F090
:1056A0004FFC02B0BDE8104001F03ABE01992368FA
:1056B000094A99421070F2D1CB216E2002B0BDE8A8
:1056C0001040FBF7FBBE019A23689A42E7D102B073
:1056D00010BD00BFF8FF012040DE002013B51A4CBA
:1056E0002368019309F0CAF938B308F027FBB8B171
:1056F00068220021154827F0DDF8144808F006FE5E
:10570000124AE6216E20FBF7D9FE019A23689A42DD
:1057100001D025F015FC02B0BDE8104001F000BE3C
:1057200001992368094A99421070F2D1CB216E2069
:1057300002B0BDE81040FBF7C1BE019A23689A424F
:10574000E7D102B010BD00BFF8FF012040DE00200D
:1057500013B51A4C2368019309F012FA38B308F014
:10576000EDFAB8B168220021154827F0A3F81448D3
:1057700008F0CCFD124AE6216E20FBF79FFE019A4D
:1057800023689A4201D025F0DBFB02B0BDE810404F
:1057900001F0C6BD01992368094A99421070F2D1FF
:1057A000CB216E2002B0BDE81040FBF787BE019A06
:1057B00023689A42E7D102B010BD00BFF8FF012074
:1057C00040DE002013B51A4C2368019309F0A4FAB7
:1057D00038B308F0B3FAB8B168220021154827F0B1
:1057E00069F8144808F092FD124AE6216E20FBF792
:1057F00065FE019A23689A4201D025F0A1FB02B010
:10580000BDE8104001F08CBD01992368094A994216
:105810001070F2D1CB216E2002B0BDE81040FBF732
:105820004DBE019A23689A42E7D102B010BD00BF75
:10583000F8FF012040DE002013B51A4C23680193C5
:1058400009F024FB38B308F079FAB8B168220021D6
:10585000154827F02FF8144808F058FD124AE621A1
:105860006E20FBF72BFE019A23689A4201D025F0A7
:1058700067FB02B0BDE8104001F052BD01992368FA
:10588000094A99421070F2D1CB216E2002B0BDE8D6
:105890001040FBF713BE019A23689A42E7D102B089
:1058A00010BD00BFF8FF012040DE002013B51A4CE8
:1058B0002368019309F086FB38B308F03FFAB8B1CA
:1058C00068220021154826F0F5FF144808F01EFD57
:1058D000124AE6216E20FBF7F1FD019A23689A42F5
:1058E00001D025F02DFB02B0BDE8104001F018BD3D
:1058F00001992368094A99421070F2D1CB216E2098
:1059000002B0BDE81040FBF7D9BD019A23689A4266
:10591000E7D102B010BD00BFF8FF012040DE00203B
:1059200013B51A4C2368019309F0F8FD38B308F059
:1059300005FAB8B168220021154826F0BBFF1448CB
:1059400008F0E4FC124AE6216E20FBF7B7FD019A4D
:1059500023689A4201D025F0F3FA02B0BDE8104066
:1059600001F0DEBC01992368094A99421070F2D116
:10597000CB216E2002B0BDE81040FBF79FBD019A1D
:1059800023689A42E7D102B010BD00BFF8FF0120A2
:1059900040DE002013B51A4C2368019309F04EFE37
:1059A00038B308F0CBF9B8B168220021154826F0C9
:1059B00081FF144808F0AAFC124AE6216E20FBF78A
:1059C0007DFD019A23689A4201D025F0B9FA02B010
:1059D000BDE8104001F0A4BC01992368094A99422E
:1059E0001070F2D1CB216E2002B0BDE81040FBF761
:1059F00065BD019A23689A42E7D102B010BD00BF8D
:105A0000F8FF012040DE002013B51A4C23680193F3
:105A100009F0B2FE38B308F091F9B8B1682200215C
:105A2000154826F047FF144808F070FC124AE6219A
:105A30006E20FBF743FD019A23689A4201D025F0BE
:105A40007FFA02B0BDE8104001F06ABC01992368FA
:105A5000094A99421070F2D1CB216E2002B0BDE804
:105A60001040FBF72BBD019A23689A42E7D102B0A0
:105A700010BD00BFF8FF012040DE002013B51A4C16
:105A80002368019309F0CCFE38B308F057F9B8B198
:105A900068220021154826F00DFF144808F036FC56
:105AA000124AE6216E20FBF709FD019A23689A420B
:105AB00001D025F045FA02B0BDE8104001F030BC3D
:105AC00001992368094A99421070F2D1CB216E20C6
:105AD00002B0BDE81040FBF7F1BC019A23689A427E
